:100000000C94FA030C9422040C9422040C94220401
:100010000C9422040C9422040C9422040C942204C8
:100020000C9422040C9422040C940B0B0C947D0B66
:100030000C9422040C9422040C9422040C942204A8
:100040000C9422040C9422040C9422040C94220498
:100050000C9422040C9422040C9422040C94730F2C
:100060000C9422040C9422040C9422040C94220478
:100070000C9422040C9422040C9422040C94220468
:100080000C9422040C9422040C9422040C94220458
:100090000C9422040C9422040C9422040C94220448
:1000A0000C9422040C9422040C942204084AD73B9A
:1000B0003BCE016E84BCBFFDC12F3D6C74319ABD37
:1000C00056833DDA3D00C77F11BED9E4BB4C3E915B
:1000D0006BAAAABE000000803F05A84CCDB2D44E4A
:1000E000B93836A9020C50B9918688083CA6AAAA4C
:1000F0002ABE000000803F00F0F89C8E8783878E28
:100100009CF8F00000FEFF0303030303070EFCF856
:100110000000FEFF0303030303070EFCF80000FFCB
:10012000FF00000000000000FFFF0000FEFF8383CF
:10013000838383C7EE7C380000F8FC0E07030303BB
:10014000070EFCF800003F7FE0C08080C0E07F3FEA
:10015000FFFF01010101010101FFFF0000FFFF0C92
:100160000C0C0C1C3E77E3C100007FFFC0C0C0C078
:10017000C0E0703F1F00001F3F70E0C0C0C0E070D3
:100180003F1F00007FFFC1C1C1C1C1E3773E1C001A
:10019000001F3F70E0C0C0C0E0703F1F00000000C3
:1001A0000001FFFF01000000D5F08D14A1C881CF30
:1001B000D9F1AF2000080B0002020201000904007F
:1001C00000010202000005240010010524010101C4
:1001D00004240206052406000107058103100040DF
:1001E00009040100020A00000007050202400000A5
:1001F000070583024000000403090412010002EF16
:100200000201404123368000010102030141726472
:1002100075696E6F204C4C430041726475696E6F56
:10022000204C656F6E6172646F0000B00000A170B9
:10023000E150964F26900F1D070C009669004AE486
:100240004A0048444000806810000F99FB8F9DBD14
:10025000BBFB77D4D4DF1F1A1AFE7F5D5DFF805A87
:100260000000A0A4AA0010BA3400FF5953F3FF9B6A
:100270009B9EFFB9B996FF9595D19FF4940FFC29E9
:100280005F91FF1838F8FF9294FFFF95D5F7BFB53F
:10029000DDD7F18F81F1F788C8F779C6467909FD76
:1002A0009B090196F8008281828050716200775626
:1002B000560076763700A2B77301077206007827DA
:1002C000500073347400775176007F55F700477102
:1002D0001000324772007364730015A275006167E5
:1002E0009400009F6060F4F2F6F20102040810200E
:1002F000408000000000003E5B4F5B3E3E6B4F6B5A
:100300003E1C3E7C3E1C183C7E3C181C577D571CF6
:100310001C5E7F5E1C00183C1800FFE7C3E7FF006F
:1003200018241800FFE7DBE7FF30483A060E2629BD
:10033000792926407F050507407F05253F5A3CE780
:100340003C5A7F3E1C1C08081C1C3E7F14227F2246
:10035000145F5F005F5F06097F017F006689956A11
:10036000606060606094A2FFA29408047E0408109C
:10037000207E201008082A1C08081C2A08081E10C5
:100380001010100C1E0C1E0C30383E3830060E3E7D
:100390000E06000000000000005F000000070007DC
:1003A00000147F147F14242A7F2A12231308646206
:1003B00036495620500008070300001C2241000067
:1003C00041221C002A1C7F1C2A08083E08080080C5
:1003D000703000080808080800006060002010085D
:1003E00004023E5149453E00427F4000724949495E
:1003F000462141494D331814127F10274545453990
:100400003C4A494931412111090736494949364693
:100410004949291E00001400000040340000000873
:100420001422411414141414004122140802015916
:1004300009063E415D594E7C1211127C7F494949A3
:10044000363E414141227F4141413E7F4949494138
:100450007F090909013E414151737F0808087F0067
:10046000417F41002040413F017F081422417F40ED
:100470004040407F021C027F7F0408107F3E4141C4
:10048000413E7F090909063E4151215E7F09192934
:1004900046264949493203017F01033F4040403F1E
:1004A0001F2040201F3F4038403F6314081463035F
:1004B000047804036159494D43007F4141410204DE
:1004C000081020004141417F0402010204404040E5
:1004D0004040000307080020545478407F284444DB
:1004E000383844444428384444287F3854545418F5
:1004F00000087E090218A4A49C787F0804047800F0
:10050000447D40002040403D007F102844000041D1
:100510007F40007C047804787C08040478384444E4
:100520004438FC1824241818242418FC7C080404DB
:1005300008485454542404043F44243C4040207C44
:100540001C2040201C3C4030403C44281028444C97
:100550009090907C4464544C440008364100000064
:10056000770000004136080002010204023C262305
:10057000263C1EA1A161123A4040207A38545455BD
:100580005921555579412154547841215554784089
:1005900020545579400C1E5272123955555559390F
:1005A0005454545939555454580000457C41000264
:1005B000457D420001457C40F0292429F0F02825A2
:1005C00028F07C545545002054547C547C0A097F03
:1005D0004932494949323248484832324A4848301B
:1005E0003A4141217A3A42402078009DA0A07D39CD
:1005F000444444393D4040403D3C24FF2424487E4F
:100600004943662B2FFC2F2BFF0929F620C0887E3B
:10061000090320545479410000447D413048484A40
:1006200032384040227A007A0A0A727D0D19317DF3
:100630002629292F28262929292630484D402038C7
:100640000808080808080808382F10C8ACBA2F1086
:100650002834FA00007B000008142A142222142AED
:1006600014089500220095AA005500AAAA55AA557B
:10067000AA000000FF00101010FF00141414FF0067
:100680001010FF00FF1010F010F0141414FC0014F0
:1006900014F700FF0000FF00FF1414F404FC14140E
:1006A00017101F10101F101F1414141F001010100B
:1006B000F0000000001F101010101F10101010F09C
:1006C00010000000FF101010101010101010FF107C
:1006D000000000FF140000FF00FF00001F101700C3
:1006E00000FC04F414141710171414F404F400009C
:1006F000FF00F714141414141414F700F71414144E
:10070000171410101F101F141414F4141010F010EC
:10071000F000001F101F0000001F14000000FC1458
:100720000000F010F01010FF10FF141414FF14104C
:1007300010101F00000000F010FFFFFFFFFFF0F09F
:10074000F0F0F0FFFFFF0000000000FFFF0F0F0FB1
:100750000F0F38444438447C2A2A3E147E02020695
:1007600006027E027E0263554941633844443C04DC
:10077000407E201E2006027E020299A5E7A5991C54
:100780002A492A1C4C7201724C304A4D4D30304877
:10079000784830BC625A463D3E494949007E0101D5
:1007A000017E2A2A2A2A2A44445F444440514A446A
:1007B0004040444A51400000FF0103E080FF000038
:1007C00008086B6B083612362436060F090F060030
:1007D0000018180000001010003040FF0101001F39
:1007E00001011E00191D1712003C3C3C3C0000009A
:1007F0000000601A11241FBECFEFDAE0DEBFCDBFCC
:1008000011E0A0E0B1E0EEECFFE302C005900D9234
:10081000AA3EB107D9F726E0AAEEB1E001C01D92C9
:10082000A639B207E1F713E0CAEFD3E004C021977D
:10083000FE010E94DA1FC93FD107C9F70E94761155
:100840000C94E51F0C9400009C01240F311D12161E
:10085000130684F5803891056CF5FC0197FF02C002
:10086000E0E0F0E02138310514F020E830E02E1B04
:10087000AB014770552781E090E001C0880F4A9591
:10088000EAF7809577FF02C0695F7F4F93E0759527
:1008900067959A95E1F77695762F66277795679510
:1008A000E60FF71FE450FE4F215020F0908198236F
:1008B0009193FACF089597FF04C09C0180E090E0E7
:1008C00002C020E030E0821B930B77FF03C020E0E2
:1008D00030E003C09B0160E070E0261B370B889F6F
:1008E000B001899F700D700D1124229FC001239FBC
:1008F000900D900D1124680F791F072E000C880BA6
:10090000990B0E949B1D0E94151F0E946A1D862F35
:10091000089580E0ECEFF1E081118FEF00248193E6
:100920008193819381930394D1F708958091FC0181
:100930008EBDEDEFF1E081910DB407FEFDCF8EBDD0
:1009400085E0EC3FF807B9F70DB407FEFDCF089539
:100950005F926F927F928F929F92AF92BF92CF924F
:10096000DF92EF92FF920F931F93CF93DF93EC01EF
:100970008B01CB018C1B9D0B97FF03C0919581953B
:10098000910955245394813891053CF4512CC801A8
:1009900000E810E0E12CF12C0FC00C171D0734F01B
:1009A0007E0180E890E0C0E0D0E006C078018E01D2
:1009B00080E090E0C0E8D0E038016E187F085C016C
:1009C000AC1ABD0AB7FE03C0B194A194B10863018B
:1009D00077FE03C02FEFC21AD20AD594C794C81766
:1009E000D90714F08FEF01C081E0882E880F990895
:1009F0000E151F05C4F021E0552019F0A701BE0116
:100A000002C0AE01B70185E196E00E94F20FCA185C
:100A1000DB08D7FE04C0C80DD91DC60CD71C8FEF4C
:100A2000E81AF80AE5CFDF91CF911F910F91FF905F
:100A3000EF90DF90CF90BF90AF909F908F907F907E
:100A40006F905F9008952F923F924F925F926F92B6
:100A50007F928F929F92AF92BF92CF92DF92EF924E
:100A6000FF920F931F93CF93DF93CDB7DEB72E97EF
:100A70000FB6F894DEBF0FBECDBF8C017B016817A7
:100A8000790774F4813291050CF421C18F2D78011E
:100A9000062F182F50E8C52ED12C80E090E007C01B
:100AA0006132710514F1C12CD12C80E890E030E264
:100AB00020E040E450E05E874D87013211053CF4B0
:100AC0005D854E85DE86CD86C52ED42E04C0302FA2
:100AD000212F00E210E00E151F0509F047C02D85FB
:100AE0003E85C216D306C4F00AC0809709F0E4C060
:100AF00080E490E01E861D8640E8C42ED12C3D8502
:100B00002E854D855E854C155D0514F43C2D2D2DEF
:100B1000CD84DE843D872E878C159D0544F02D8580
:100B20003E852817390714F49E878D87C6014D85A9
:100B30004F5F481B60E270E02E960FB6F894DEBF60
:100B40000FBECDBFDF91CF911F910F91FF90EF901E
:100B5000DF90CF90BF90AF909F908F907F906F90DD
:100B60005F904F903F902F900C9424043701E32E18
:100B7000F22E96014D855E85241B350B3E832D8319
:100B80009701201B310B38872F834C01841A950A5B
:100B90009301201B310B3A8329839C012C193D09B9
:100BA0003C832B8393012E193F093A8729879701AC
:100BB000E614F70411F0215031095801412C512C51
:100BC000212C312C2A153B058CF1C1016F817885D0
:100BD0000E94C61FED85FE85E60FF71FC2016981E1
:100BE0007A810E94C61F4D855E85640F751F8D81B9
:100BF0009E81280E391E480C591C6E177F071CF465
:100C00009E2FFB01692F90E4A916B10458F46F5F81
:100C1000462F4E1BB501CF012B873C870E94240431
:100C20003C852B854FEFA41AB40ACCCFC5018E1991
:100C30009F092B813C81289F7001299FF00C389FD0
:100C4000F00C1124C501801B910B889E8001899EA8
:100C5000100D989E100D11246A147B040CF445C0ED
:100C6000C70169857A850E94C61F9601260F371F26
:100C7000C80169817A810E94C61F4D855E85640F17
:100C8000751F8B819C81E80EF91E080D191D6217D6
:100C900073071CF4922F9B01692F90E4A916B104ED
:100CA00038F46F5F462F421BB501C9010E9424042E
:100CB0002FEFA21AB20AD0CF20E2622E712C80E46C
:100CC00090E01E861D8630E8C32ED12C52CF382FDF
:100CD000212F8B0180E8C82ED12C90E2E92EF12C37
:100CE00080E490E01E861D86EBCE2E960FB6F8941B
:100CF000DEBF0FBECDBFDF91CF911F910F91FF904F
:100D0000EF90DF90CF90BF90AF909F908F907F90AB
:100D10006F905F904F903F902F900895AF92BF9249
:100D2000CF92DF92EF92FF920F931F93CF93DF93B7
:100D30007B01EC015C01A40EB11C6B01C20ED11C45
:100D4000CA15DB05E4F48701F7FE0FC000E010E0F0
:100D50000CC0081719078CF421E0A801BE0185E139
:100D600096E00E94F20F0F5F1F4FC60121E4C216EA
:100D7000D1047CF380E490E0ECCF2196E1CFDF91C9
:100D8000CF911F910F91FF90EF90DF90CF90BF9088
:100D9000AF9008958F929F92AF92BF920F931F933F
:100DA000CF93DF93CDB7DEB7A1970FB6F894DEBF30
:100DB0000FBECDBF19A2423008F44AE08E010F5D8C
:100DC0001F4F842E912CA12CB12CA50194010E94BF
:100DD000DC1BE62FB901CA0101501109EA3014F4F5
:100DE000E05D01C0E95CD801EC93232B242B252B7B
:100DF00061F7B8018CEF95E00E94FF0EA1960FB647
:100E0000F894DEBF0FBECDBFDF91CF911F910F9140
:100E1000BF90AF909F908F9008952F923F924F92E6
:100E20005F926F927F928F929F92AF92BF92CF927A
:100E3000DF92EF92FF920F931F93CF93DF93CDB783
:100E4000DEB767970FB6F894DEBF0FBECDBF9987A8
:100E500088877B876A873D872C871F870E8722E2DA
:100E600031E03E832D838CE391E09C838B831A8257
:100E7000198250E0FA013197F98BE88B98E6492EF8
:100E80005524539424E6222E312C88899989E981AE
:100E9000FA81E817F9070CF0BCC1ED81FE810191E0
:100EA0001191FE83ED83EB81FC81E190F190FC8355
:100EB000EB83B801C7010E945B04282F30E03F8B11
:100EC0002E8B662777276E197F09072E000C880B5B
:100ED000990B0E949B1D9B01AC0166277727601B25
:100EE000710B072E000C880B990B2A8B3B8B4C8BBC
:100EF0005D8B0E949B1D2A893B894C895D890E94DC
:100F00008D1C4B015C01ED81FE8100811181EB8123
:100F1000FC81E080F180B801C7010E945B04C82E0B
:100F2000D12C662777276E197F09072E000C880BB6
:100F3000990B0E949B1D9B01AC0166277727601BC4
:100F4000710B072E000C880B990B2A8B3B8B4C8B5B
:100F50005D8B0E949B1D2A893B894C895D890E947B
:100F60008D1C20E030E044E353E40E949A1E2BEDF8
:100F70003FE049E450E40E94F11C0E94631D8CE4B0
:100F80009FEF861B970BB2010E94C61F88599E4F88
:100F9000B2010E94C61F0E851F85080F191F2C85E0
:100FA0003D85C29EC001C39E900DD29E900D11241E
:100FB000B1010E94C61FCB01B8010E94FF10EA8454
:100FC000FB84E80EF91E4CE251E0C49EC001C59EB0
:100FD000900DD49E900D1124B1010E94C61FCB012B
:100FE000B8010E943B1168847984680E791E20E064
:100FF00030E044E353E4C501B4010E949A1E2BED96
:101000003FE049E450E40E94F11C0E94631D8CE41F
:101010009FEF861B970BB2010E94C61F88599E4FF7
:10102000B2010E94C61FCE84DF84C80ED91EEE898D
:10103000FF892C853D85E29FC001E39F900DF29FC3
:10104000900D1124B1010E94C61FCB01B6010E9470
:10105000FF100A851B85080F191F4E895F89ECE276
:10106000F1E04E9FC0014F9F900D5E9F900D1124A7
:10107000B1010E94C61FCB01B6010E943B11288519
:101080003985280F391F3F8B2E8B9701201B310B81
:1010900037FF03C0319521953109C3014E895F891E
:1010A000841B950B97FF03C091958195910951E0A1
:1010B0005F838217930714F01F820BC0962D872D34
:1010C0003701E92EF82E9E898F891F8B0E8B092FF1
:1010D000182F8E899F89681679065CF4902F812FCE
:1010E0008701E92EF82E9E898F897F8A6E8A692E64
:1010F000782E5301EE89FF89AE1ABF0A4701801A84
:10110000910A97FE03C09194819491086501B7FEFE
:1011100003C0FFEFCF1ADF0AD594C7940E151F0541
:1011200014F08FEF01C081E0E82E880FFF082E89B0
:101130003F89621673060CF465C03F81332341F189
:101140004E894770EE89E695E695E69550E8E59F6D
:10115000F0011124E450FE4FE00FF11D208130E03A
:1011600081E090E0042E02C0880F991F0A94E2F7F4
:101170008223932302C0959587954A95E2F70197BC
:1011800011F420E001C021E04E895F89B80128C038
:10119000402F4770E02FE695E695E69580E8E89FBA
:1011A000F0011124E450FE4F9E89E90FF11D2081CA
:1011B00030E081E090E0042E02C0880F991F0A946D
:1011C000E2F78223932302C0959587954A95E2F72B
:1011D000019711F420E001C021E0A8016E897F8908
:1011E00085E196E00E94F20FC818D908D7FE04C026
:1011F0000E0D1F1DCA0CDB1CEE89FF893196FF8B7B
:10120000EE8B95CF49815A814F5F5F4F5A83498357
:101210003CCE67960FB6F894DEBF0FBECDBFDF9110
:10122000CF911F910F91FF90EF90DF90CF90BF90E3
:10123000AF909F908F907F906F905F904F903F9076
:101240002F900895FC018091FB01811103C08FEF65
:101250009FEF08959FB7F89482E08093E900209172
:10126000F20030E01216130614F421E030E02115EC
:10127000310559F0289884E68093FA018091F100B5
:1012800080838091F200882319F09FBFC9010895DF
:101290008BE68093E800F9CF2FB7F89483E0809332
:1012A000E9009091E800892F807295FF04C0909129
:1012B000F20080E4891B2FBF08958F929F92AF9216
:1012C000BF92CF92DF92EF92FF920F931F93CF9333
:1012D000DF935C016B017A0180912101882309F47D
:1012E0005BC08091FB01882309F456C08091F9010D
:1012F00080FF05C08091E00082608093E000E701FC
:1013000010E00AEF83E0882E9AE3992E2097D9F116
:101310000E944C0981110AC0015009F43DC061E0EE
:1013200070E080E090E00E94390FF0CF282F30E08D
:10133000C217D3070CF48C2F4FB7F8948092E900B2
:101340009091E80095FF1DC0282F30E0C21BD30B01
:10135000F601982F915020F081918093F100FACFFF
:10136000C20ED31E112319F09092E80009C080919B
:10137000E80085FD06C09092E80011E0209709F092
:1013800010E04FBFC3CF1111C3CF5D9884E68093A7
:10139000F8011E141F0444F081E090E0F5019383EE
:1013A000828380E090E001C0C701DF91CF911F915F
:1013B0000F91FF90EF90DF90CF90BF90AF909F90F4
:1013C0008F9008958091330681110DC082E0809343
:1013D0002F0684E080933006109232061092310678
:1013E00081E0809333068FE296E00895CF93DF93F8
:1013F0001F92CDB7DEB76983DC01ED91FC910280CD
:10140000F381E02D41E050E0BE016F5F7F4F099511
:101410000F90DF91CF91089583E08093E900809150
:10142000F200882319F08AE38093E8000895FC0114
:101430008485958597FD0BC09FB7F89482E08093D3
:10144000E9008091F2009FBF90E0019608959FB758
:10145000F89482E08093E9008091F2009FBF90E0D1
:10146000089540918F065091900620918D063091FD
:101470008E0642175307B4F49091E8009570E1F39B
:101480009091E80092FD19C08093F10080918F0641
:101490009091900601968F739927892B19F48EEFFE
:1014A0008093E80080918F0690919006019690932A
:1014B000900680938F0681E0089580E00895DF9282
:1014C000EF92FF920F931F93CF93DF93D82E8A0151
:1014D0007B01E40EF51EEB01CE15DF0571F0D7FEA2
:1014E00003C0FE01849101C088810E94310A2196C7
:1014F0008111F2CF8FEF9FEF01C0C801DF91CF9133
:101500001F910F91FF90EF90DF900895615030F0A0
:101510002091F100FC0120830196F8CF289884E601
:101520008093FA0108950E944C0990E00895CF93AA
:10153000DF931F92CDB7DEB7FC018485958597FDBB
:1015400005C02FEF3FEF358724870BC0CE010196F2
:101550000E942209019719F4898190E002C08FEF5F
:101560009FEF0F90DF91CF9108950F931F93CF932B
:10157000DF931F92CDB7DEB78C01FC018485958582
:1015800097FF0EC0CE0101960E942209019719F41F
:10159000298130E002C02FEF3FEFF8013587248723
:1015A000F801848595850F90DF91CF911F910F9160
:1015B00008950F931F93CF93DF931F92CDB7DEB79C
:1015C00082E0898342E450E065EB71E080E80E94AC
:1015D0005F0A0E94E209DC0112960D911C9113979B
:1015E0000115110569F0D801ED91FC910280F3819C
:1015F000E02DBE016F5F7F4FC801099597FF07C0BF
:1016000089810F90DF91CF911F910F910895F8017B
:1016100000851185E5CF1F920F920FB60F9211240E
:101620008F939F938091E1009091E100937F90933D
:10163000E10083FF0FC01092E90091E09093EB006E
:101640001092EC0092E39093ED001092FB0198E071
:101650009093F00082FF20C093E09093E900909176
:10166000F200992319F09AE39093E8009091F80121
:10167000992339F09091F80191509093F8019923B2
:1016800089F19091FA01992339F09091FA019150E2
:101690009093FA01992341F184FF10C08091E200F8
:1016A0008E7E81608093E2008091E1008F7E809346
:1016B000E1008091F9018E7E806111C080FF16C02B
:1016C0008091E2008E7E80618093E2008091E10053
:1016D0008E7E8093E1008091F9018E7E81608093FF
:1016E000F90104C05D9ACDCF289AD6CF9F918F91F2
:1016F0000F900FBE0F901F9018951F920F920FB66C
:101700000F921124CF92DF92EF92FF920F931F93CB
:101710002F933F934F935F936F937F938F939F93F9
:10172000AF93BF93EF93FF93CF93DF93CDB7DEB724
:101730006C97DEBFCDBF1092E9008091E80083FF77
:10174000EDC168E0CE0145960E94860A82EF809343
:10175000E8008D8987FF05C09091E80090FFFCCFDD
:1017600003C09EEF9093E800982F907609F0C6C0D2
:101770009E892F89188D91110CC0803829F4809191
:101780008C068093F10002C01092F1001092F100DB
:1017900048C1422F50E0512B913051F4811141C189
:1017A0004130510509F03DC180918C068D7F0BC001
:1017B000933061F4811135C14130510509F031C1D7
:1017C00080918C06826080938C062BC1953041F409
:1017D0008091E80080FFFCCF20682093E30021C1C6
:1017E000963009F05FC0EB8CFC8C1092E9001092EF
:1017F000900610928F06123091F510928E0610927C
:101800008D060E94D90A99E0BE016F5F7F4FDB0110
:10181000E92F1D92EA95E9F799831A8391E09E8357
:1018200090EA98879AEF998720918F0630919006D9
:10183000275F3F4F3C832B838D831092E9001092EA
:10184000900610928F06F0928E06E0928D0649E087
:1018500050E080E00E945F0A0E94D90AE2C0F09244
:101860008E06E0928D060E94E209DC011296ED9050
:10187000FC901397E114F10409F4C0C0D701ED9175
:10188000FC910480F581E02DBE016B5E7F4FC701A6
:101890000995009719F00CF0C4C0C7C0F701E084A7
:1018A000F184E8CF973009F4C0C0983021F481E08A
:1018B0008093F100B6C0993009F0B3C0837009F08D
:1018C000B4C0E1E9F1E081E021E036E390819923C1
:1018D00061F08093E9002093EB0091919093EC00EC
:1018E0003093ED008F5F873089F78EE78093EA00B1
:1018F0001092EA008F898093FB0193C08B8D9C8DA1
:101900001092E9001092900610928F0690938E0626
:1019100080938D06898D811156C08E899D89913A5B
:1019200059F4813209F081C047E050E06AE171E08A
:1019300080E00E945F0A75C0913209F076C0833260
:1019400089F4888D90E0982F88272F89822BA0E03A
:10195000B0E08093560190935701A0935801B09343
:1019600059015FC0803269F48091E80082FFFCCFAA
:1019700067E08AE191E00E94860A8BEF8093E8009D
:1019800006C0823209F04DC08F8980932101809179
:101990008B06882319F0EEEFFAE002C0E0E0F8E0F1
:1019A00080911A0190911B01A0911C01B0911D0121
:1019B000803B9440A105B10509F07BC080912101D5
:1019C00080FF93C076C00E94E209DC0112960D915F
:1019D0001C9113970115110541F1D801ED91FC916E
:1019E0000190F081E02DBE016B5E7F4FC80109952B
:1019F000811117C0F80100851185ECCF113009F471
:101A00004EC0133091F48F89882309F445C0823089
:101A100081F440E860E189E192E00E94B71A8823EE
:101A200021F08EEF8093E80079C081E28093EB0093
:101A300075C0813029F440E86BE08DE092E0EDCF95
:101A4000833099F70E94E209DC011296ED90FC9038
:101A500013978E010F5F1F4F6801E114F10479F0B5
:101A6000D701ED91FC910680F781E02DB801C70107
:101A70000995080F111DF701E084F184EECFD8011C
:101A80001C92F60101900020E9F73197BF016C1913
:101A90007D0940E0C601C1CF67EF71E002C06BEF86
:101AA00071E06115710509F2FB01449150E080E895
:101AB00040CF0FB6F894A89580916000886180931C
:101AC0006000109260000FBEA895EE3F2AE0F2077A
:101AD00039F08091FE0A9091FF0A91838083A1CF13
:101AE0001092FF0A1092FE0A9CCFEE3F8AE0F807A0
:101AF00031F0808191819093FF0A8093FE0A87E7FD
:101B000097E7918380839BE088E10FB6F894A895CE
:101B1000809360000FBE9093600083CF6C960FB6E9
:101B2000F894DEBF0FBECDBFDF91CF91FF91EF9153
:101B3000BF91AF919F918F917F916F915F914F91E5
:101B40003F912F911F910F91FF90EF90DF90CF90D9
:101B50000F900FBE0F901F901895CF92DF92EF92CB
:101B6000FF920F931F93CF93DF936C017A018B0148
:101B7000C0E0D0E0CE15DF0589F0D8016D918D0170
:101B8000D601ED91FC910190F081E02DC6010995FF
:101B9000892B11F47E0102C02196ECCFC701DF91A1
:101BA000CF911F910F91FF90EF90DF90CF9008950C
:101BB00008956F927F928F929F92AF92BF92CF9231
:101BC000DF92EF92FF920F931F93CF93DF935C010D
:101BD0006B01102F98E0892E912CE42EE694E69468
:101BE000E694EE2DF0E0CA0187709927892B41F524
:101BF000D5011796CD91DC911897C6019927BE01A2
:101C00000E94C61F9927D50115966D917C91169754
:101C1000EC9FA001ED9F500DFC9F500D1124840FEF
:101C2000951FFB01E80FF91F111106C0C22FC095C7
:101C300020812C23208327C0C081C22BC08323C0D6
:101C4000C22FD0E04770642E712C7F0183E0EE0C30
:101C5000FF1C8A95E1F79E0101C0220F4A95EAF721
:101C6000012FA701B601C5010E94D90DC401861933
:101C7000970902C0D595C7958A95E2F72C2FA70141
:101C8000485F5F4FAACFDF91CF911F910F91FF90D7
:101C9000EF90DF90CF90BF90AF909F908F907F900C
:101CA0006F9008955F926F927F928F929F92AF9202
:101CB000BF92CF92DF92EF92FF920F931F93CF9339
:101CC000DF93EC016A3061F48D859E859C878B875C
:101CD0002C898F859889820F911D988B8F8777C06B
:101CE000CB84DC84693031F489E0C80ED11CDC86F9
:101CF000CB866DC0162FEF84F8889DEFC9169FEF35
:101D0000D90654F48B8990E004962B853C85820F8C
:101D1000931F9C878B875BC08F819885C816D906D7
:101D20008CF78DEFE8168FEFF80664F389859A85B6
:101D3000E816F9063CF7603208F41FE780EE810FE1
:101D40009FE9910F9A3118F49FEFE91AF90A8C3044
:101D500011F08B3119F49FEFE91AF90A869594E096
:101D6000899F50011124360184E0680E711C4601E0
:101D70001170F401EC19FD09EA0DFB1DE65DFD4F44
:101D80008491111103C08F70582E04C0582E5294A4
:101D90008FE058228C81882361F001E089899A893B
:101DA000892B09F000E02FE0A701B401CE010E94C9
:101DB000D90D0989252DA701B401CE010E94D90DA5
:101DC0009FEF891A990A8614970499F69BCF81E0B0
:101DD00090E0DF91CF911F910F91FF90EF90DF90F6
:101DE000CF90BF90AF909F908F907F906F905F90BB
:101DF0000895089580E090E008950E94E01F611525
:101E0000710579F0FB0101900020E9F73197AF01EE
:101E1000461B570BDC01ED91FC910280F381E02D14
:101E2000099480E090E008953FB7F894809192067D
:101E300090919306A0919406B091950626B5A89B23
:101E400005C02F3F19F00196A11DB11D3FBFBA2F4C
:101E5000A92F982F8827820F911DA11DB11DBC01AC
:101E6000CD0142E0660F771F881F991F4A95D1F771
:101E700008958F929F92AF92BF92CF92DF92EF928E
:101E8000FF926B017C010E94140F4B015C01C11495
:101E9000D104E104F104F1F00E94140FDC01CB0144
:101EA00088199909AA09BB09883E9340A105B10583
:101EB00070F321E0C21AD108E108F10888EE880E1B
:101EC00083E0981EA11CB11CC114D104E104F104EB
:101ED00019F7DDCFFF90EF90DF90CF90BF90AF90DC
:101EE0009F908F9008951F920F920FB60F9211241A
:101EF0002F933F938F939F93AF93BF938091EA016A
:101F00009091EB01A091EC01B091ED01309191061F
:101F100023E0230F2D3720F40196A11DB11D05C02C
:101F200026E8230F0296A11DB11D209391068093F0
:101F3000EA019093EB01A093EC01B093ED01809145
:101F4000920690919306A0919406B0919506019601
:101F5000A11DB11D8093920690939306A0939406C1
:101F6000B0939506BF91AF919F918F913F912F9123
:101F70000F900FBE0F901F9018952D9A0895BC01D9
:101F800080E090E00C94390F8FB12CB193B130E028
:101F90002095309520743327A90123E05595479566
:101FA0002A95E1F7292F30E02095309520713327CD
:101FB0003595279535952795242B8095807F822B05
:101FC000089583B7817F83BF83B7816083BF88957E
:101FD00083B78E7F83BF08958EBD00000DB407FECA
:101FE000FDCF089560387105D0F440345105B8F440
:101FF000EAEEF2E080E1849FD001A0781124A60FE0
:102000004770E40FF11D8491A450BE4F222319F0B4
:102010006C91862B03C080956C9186238C930895D8
:102020002F923F924F925F926F927F928F929F92E8
:10203000AF92BF92CF92DF92EF92FF920F931F93D6
:10204000CF93DF93CDB7DEB729970FB6F894DEBFF5
:102050000FBECDBFFC016A3069F4248D808D918D57
:1020600038E0239F800D911D1124918F808F178A56
:10207000168AAAC06D3009F4A7C099878887F48CA6
:10208000338C228C608C718C06891789003811057D
:10209000C4F0A885B9855C962C915C97422F50E0DE
:1020A00056968D919C915797B6E02B9F800D911D70
:1020B0001124E885F985978B868B258D21116EC0BB
:1020C00083C0F0E46F16710424F7C80125E0F29E86
:1020D000800D911D112418161906DCF68F2D90E045
:1020E0009C838B83C301A8E0FA9E800D911D11246F
:1020F0001816190674F6B5E06B9FB0011124FB01A8
:10210000EE50FD4FFA83E98330E088859985049687
:102110009E838D83E981FA81E490353009F4E12CC6
:10212000430188E0482EE0FC02C0532C01C0522C31
:1021300051100BC0321009C0E6944A948B819C81E7
:10214000880E991E4110EFCF1BC068018C2D801B9B
:102150008F1590F754018A2D88198F1568F4252D55
:10216000A501B6018D819E813F830E94F20F9FEFF2
:10217000A91AB90A3F81EFCFAFEFCA1ADA0AE6CF40
:102180003F5FEB81FC810E0F1F1F89819A810196B1
:102190009A838983363009F0BDCF7BCF6AEF640321
:1021A0009001659F300D112420583F4F28173907A3
:1021B0005CF4A885B985ED91FC9111970190F081AF
:1021C000E02D6AE0CD01099581E090E029960FB6F7
:1021D000F894DEBF0FBECDBFDF91CF911F910F915D
:1021E000FF90EF90DF90CF90BF90AF909F908F9037
:1021F0007F906F905F904F903F902F900895CF9277
:10220000DF92EF92FF92CF93DF93EC01CB0128E6B0
:1022100031E0B9010E94C61F88599E4FB9010E9442
:10222000C61FBC0168567140072E000C880B990B25
:102230000E949B1D25E33AEF4EE85CE30E949A1E44
:102240000E94071F6B017C01BE01DD0F880B990BFB
:102250000E949B1D9B01AC01C701B6010E949A1E02
:1022600090580E94631DCB01DF91CF91FF90EF90BA
:10227000DF90CF900895CF92DF92EF92FF92CF93AD
:10228000DF93EC01CB0128E631E0B9010E94C61FC3
:1022900088599E4FB9010E94C61FBC016856714003
:1022A000072E000C880B990B0E949B1D25E33AEF2B
:1022B0004EE85CE30E949A1E0E94EC1C6B017C01BC
:1022C000BE01DD0F880B990B0E949B1D9B01AC0189
:1022D000C701B6010E949A1E0E94631DCB01DF91C7
:1022E000CF91FF90EF90DF90CF900895CF93DF9341
:1022F00000D000D000D0CDB7DEB7789484B582602E
:1023000084BD84B5816084BD85B5826085BD85B599
:10231000816085BD80916E00816080936E00109217
:102320008100809181008260809381008091810092
:102330008160809381008091800081608093800023
:1023400080919100826080939100809191008160E2
:1023500080939100809190008160809390008091A3
:10236000C10084608093C1008091C100826080932D
:10237000C1008091C10081608093C1008091C30041
:1023800081608093C3008091C00082608093C00010
:102390008091C20081608093C20080917A00846045
:1023A00080937A0080917A00826080937A00809195
:1023B0007A00816080937A0080917A0080688093AF
:1023C0007A001092FB0110928C061092F901809114
:1023D000D70081608093D70080EA8093D80089B5C8
:1023E000806189BD89B5826089BD09B400FEFDCFD9
:1023F00061E070E080E090E00E94390F8091D800A9
:102400008F7C80618093D8008091E000807F8093F2
:10241000E0008091E1008E7E8093E1008DE080936A
:10242000E200559A209AEEEFFFE7859194918B3F59
:102430009C4D19F481E080938B0681EC80937C00A5
:1024400085B1806F85B9249884B1866E84B95E9A0F
:102450005F988AB1806D8AB9769A6E9881B3806FE1
:1024600081BB899880B38D7080BB80E58CBD81E095
:102470008DBD85E090E00E94BF0F5F9A85E090E0FF
:102480000E94BF0F5E985C98E8EAEE2EE1E0FE2E17
:102490001DE01E0DF70184910E94EC0FFFEFEF1A73
:1024A000FF0A1E11F7CF5C9A81E88093640081E0F7
:1024B0008093650000E014E080E00E94EC0F015082
:1024C0001109D1F70E94C40F87FF1FC05C9885EAED
:1024D0000E94EC0F5C9A2E982F982D9880916400A2
:1024E0008062809364000E94E10FFDCF2D980E94CE
:1024F000C40F8478843871F00E94C40F84718431D1
:1025000031F188EC90E00E94BF0F0E94C40F82FD61
:10251000EDCF3AC00E94BD0F88EC90E00E94BF0F43
:102520002F9882E090E00E94941B8F3F29F06FEF7C
:1025300082E090E00E949C1B84EF91E00E94BF0F1C
:102540002F9A0E94C40F84788438D9F3D5CF0E9483
:10255000BD0F88EC90E00E94BF0F2E9882E090E0C3
:102560000E94941B882329F060E082E090E00E94A2
:102570009C1B84EF91E00E94BF0F2E9A0E94C40F13
:1025800084718431D9F3BDCF0E94BD0F82E090E009
:102590000E94941B882331F03E9A3F9A81E08093F9
:1025A000EE0104C01092EE013E983F982E987EEE08
:1025B000472E55245A9408E010E00E94C40F86FF6D
:1025C00004C02E9A2F9A2D9A92C02CEF42162FEF0C
:1025D000520619F42E9A2F9806C048E14416510469
:1025E00011F42F9A2D980E94890450EF45165FEF41
:1025F00055068CF40E9496048BE190E00E94BF0F78
:1026000060EF46166FEF560609F059C08AEF90E06A
:102610000E94BF0F54C0920157FE04C022273327E7
:102620002419350927703327C20157FC079663E048
:10263000959587956A95E1F757FE05C00197D801F2
:10264000A21BB30B9D017C01F694FE2CEE24F794A3
:10265000E79440E050E04801821A930AF701E058FD
:10266000FF4F5F018F3FFFEF9F0744F40196485AE9
:102670005F4F7501403B510589F7BCCFD701A0578B
:10268000BD4F60E070E08F3FEFEF9E0709F496C604
:10269000FB01E40FF51FE850FF4FE4916D01CA18EC
:1026A000DB08CE0CDF1CF0E01F01022E01C0220C63
:1026B0000A94EAF7F6017080272820827FC6FFEF90
:1026C0004F1A5F0A29E14216510409F076CF8CEBCC
:1026D00092E00E94BF0F0E94BD0FE0911506F0919D
:1026E00016060190F081E02D85E196E0099582E3E0
:1026F00090E00E94BF0F0E94C40F8111F8CF80E1CB
:1027000080931C06809164008E7F8093640080918A
:102710007A00806480937A0080917A0086FDFCCFF5
:1027200000917800109179000E94140F20E030E0B1
:10273000980111270027600F711F821F931F6115D9
:1027400071058105910511F00E948B1B8091640039
:102750008160809364000E94890410922A0610927E
:102760002906109228061092270624E1222E312CE9
:102770002FB7F8948091EA019091EB01A091EC01C0
:10278000B091ED012FBF409121065091220660913A
:1027900023067091240620912506222341F02091E2
:1027A0001D06821B8093260610922506FFC58417FE
:1027B0009507A607B70738F4481B423008F4F6C55A
:1027C0000E94E10FF3C521E02093250680931D06AA
:1027D00090931E06A0931F06B093200620911C061E
:1027E000820F911DA11DB11D809321069093220699
:1027F000A0932306B09324068091180690911906A1
:102800000196909319068093180680911A0680937A
:102810001B060E94C40F80931A060E94890410921E
:102820002A061092290610922806109227068091F7
:102830001901811100C58091F30181111BC00E9413
:10284000861B2CE030E040E050E00E94AA1BDC0137
:10285000CB010196A11DB11D8093F30140E050E032
:1028600060E87FE34093EF015093F0016093F10142
:102870007093F20181E0482E81E0582E95E0792E88
:10288000D201CD90DD90ED90FC90A701960160E023
:1028900070E080E892E40E940D1C0E94631D5B01C1
:1028A00000E010E021E0A801B50185E196E00E947A
:1028B000F20F0F5F1F4F00341105A1F720E030E049
:1028C00040E852E4C701B6010E940E1C0E94631D3D
:1028D0005B0100E010E021E0A801B50185E196E090
:1028E0000E94F20F0F5F1F4F00341105A1F7B09146
:1028F000F401B9838B2F672D0E94A61FB101681BBD
:102900007109072E000C880B990B0E949B1D4B012F
:102910005C019B01AC01C701B6010E94F11C9B0147
:10292000AC01C701B6010E940E1C6B017C0120E0C6
:1029300030E040E852E40E948D1E181634F0F20197
:10294000C082D182E282F3820AC040E050E060E8B7
:102950007FE3D2014D935D936D937C931397B4E025
:102960004B0E511CE5E14E16E1E05E0609F088CF02
:1029700060E070E080E090E00E94230560E470E099
:1029800080E490E00E94230560E470E080E090E045
:102990000E94A80460E070E080E490E00E94A80437
:1029A000F091F301FE83FF2309F447C2C090EF01C9
:1029B000D090F001E090F101F090F201F13029F5B2
:1029C00020E030E040E05FE3C701B6010E949A1EBC
:1029D0009B01AC012D833A834B835C830E946A1D6B
:1029E000162FC701B6010E946A1D062F2D813A815C
:1029F0004B815C8160E070E080E092E40E940D1CFD
:102A00000E94631D2B013C01ADC12E81223009F5CE
:102A100020E030E040E05FE3C701B6010E949A1E6B
:102A20000E946A1D162FC701B6010E946A1D062F5B
:102A3000A701960160E070E080E892E40E940D1C1E
:102A40000E94631DDC01CB01212F402F60E270E06A
:102A5000D6C14E81433029F520E030E040E05FE30D
:102A6000C701B6010E949A1E9B01AC012D833A83D7
:102A70004B835C830E946A1D062FC701B6010E942A
:102A80006A1D162F2D813A814B815C8160E070E0D8
:102A900080E092E40E940D1C0E94631D202F412FB4
:102AA00028C15E81543099F420E030E040E05FE3DB
:102AB000C701B6010E949A1E0E946A1D262FC701F7
:102AC000B6012D830E946A1D462F2D8110C16E8193
:102AD000653099F420E030E040E05FE3C701B601E3
:102AE0000E949A1E2B013C010E946A1D162FC701ED
:102AF000B6010E946A1D062F62C17E81763009F5FB
:102B000020E030E040E05FE3C701B6010E949A1E7A
:102B10000E946A1D162FC701B6010E946A1D062F6A
:102B2000A701960160E070E080E892E40E940D1C2D
:102B30000E94631DDC01CB01212F402F60E270E079
:102B4000D2C08E81873059F520E030E040E05FE36D
:102B5000C701B6010E949A1E9B01AC012D833A83E6
:102B60004B835C830E946A1D062FC701B6010E9439
:102B70006A1D162F2D813A814B815C8160E070E0E7
:102B800080E092E40E940D1C0E94631D202F412FC3
:102B900080E490E00E948E06202F412FA8C09E81E5
:102BA000983039F520E030E040E05FE3C701B6013E
:102BB0000E949A1E9B01AC012D833A834B835C8358
:102BC0000E946A1D162FC701B6010E946A1D062FBA
:102BD0002D813A814B815C8160E070E080E092E47D
:102BE0000E940D1C0E94631D2B013C01212F402FD0
:102BF000B5C0AE81A93009F041C020E030E040E02E
:102C00005FE3C701B6010E949A1E9B01AC012D83B0
:102C10003A834B835C830E946A1D162FC701B6015D
:102C20000E946A1D062F2D813A814B815C8160E0F4
:102C300070E080E092E40E940D1C0E94631D2B0155
:102C40003C01A701960160E070E080E892E40E94F8
:102C50000D1C0E94631D6B017C01212F402FB201CE
:102C6000C6010E948E06212F402F60E270E0C6014F
:102C70000E948E06212F402FB2013BC0BE81BA3088
:102C8000D9F520E030E040E05FE3C701B6010E94E3
:102C90009A1E2B013C010E946A1D162FC701B60126
:102CA0000E946A1D062FA701960160E070E080E88F
:102CB00092E40E940D1C0E94631DDC01CB01212FB8
:102CC000402F60E270E00E948E06A301920160E056
:102CD00070E080E092E40E940D1C0E94631D212F91
:102CE000402F80E490E00E948E06212F402F60E26A
:102CF00070E080E490E083C0EE81EB3009F042C0E8
:102D000020E030E040E05FE3C701B6010E949A1E78
:102D10009B01AC012D833A834B835C830E946A1D27
:102D2000162FC701B6010E946A1D062F2D813A8118
:102D30004B815C8160E070E080E092E40E940D1CB9
:102D40000E94631D2B013C01212F402F80E490E065
:102D50000E948E06212F402F60E270E080E490E018
:102D60000E948E06A701960160E070E080E892E480
:102D70000E940D1C0E94631DDC01CB01212F402FFE
:102D8000B2013DC0FE81FC30E1F520E030E040E0E2
:102D90005FE3C701B6010E949A1E2B013C010E940D
:102DA0006A1D162FC701B6010E946A1D062F212F2A
:102DB000462F60E270E080E490E00E948E06A7015A
:102DC000960160E070E080E892E40E940D1C0E9491
:102DD000631D6B017C01A301920160E070E080E063
:102DE00092E40E940D1C0E94631D212F402FC601FA
:102DF0000E948E06212F402F60E270E0C6010E94E3
:102E00008E06C090EF01D090F001E090F101F090BB
:102E1000F201A5019401C701B6010E94F11C9B01BA
:102E2000AC01C701B6010E940E1C6093EF017093C4
:102E3000F0018093F1019093F201C090F601D090DF
:102E4000F701E0901701F0901801A0901601B090E2
:102E500015016A2D70E0860197014DE08B2D90E001
:102E60000E940D070E94C40F85FF12C020E2C21607
:102E7000D1043CF442E0C40ED11CD092F701C092C0
:102E8000F601BB2079F0BA94BA94B09215010AC049
:102E90001C141D043CF454E0C51AD108D092F7016B
:102EA000C092F6010E94C40F2091F6013091F70103
:102EB00086FF12C0213E6FEF360734F022503109F1
:102EC0003093F7012093F601809115018F3760F45C
:102ED0008E5F8093150108C037FF06C02C5F3F4FFF
:102EE0003093F7012093F6010E94C40F87FF12C0B0
:102EF0007CEAE716F1043CF486E0E80EF11CF0925F
:102F00001801E0921701AA20D9F0AA94AA94A092DD
:102F1000160116C09DE4E916F10494F0A9E5EA163D
:102F2000F10444F0BCE0EB1AF108F0921801E092D1
:102F3000170106C08CE490E090931801809317016C
:102F40000E94C40F209117013091180184FF12C014
:102F50002D3CEFEF3E0734F0285031093093180133
:102F600020931701809116018A33B8F48E5F809305
:102F7000160113C02C34310584F42C3331053CF494
:102F8000205F3F4F309318012093170106C08CE457
:102F900090E09093180180931701FE81FF2309F4BC
:102FA000E4C020E030E04CE752E46091EF01709122
:102FB000F0018091F1019091F2010E948D1E18168E
:102FC0000CF0D3C02E81213079F480911501813429
:102FD00058F480911601813238F4809100018150BB
:102FE000809300011092F3018091F301823079F413
:102FF00080911501813458F480911601803238F0A7
:10300000809100018150809300011092F301809122
:10301000F301833079F4809115018F3358F080915A
:103020001601813238F480910001815080930001B3
:103030001092F3018091F301843079F480911501AD
:103040008F3358F080911601803238F08091000162
:103050008150809300011092F3018091F30185303B
:1030600059F480911501813438F480910001815028
:10307000809300011092F3018091F301863059F49E
:1030800080911601803238F0809100018150809348
:1030900000011092F3018091F301873059F480917F
:1030A00015018F3338F08091000181508093000129
:1030B0001092F3018091F301883059F48091160148
:1030C000813238F480910001815080930001109288
:1030D000F3018091F301893079F4809115018F33E8
:1030E00020F080911601803238F4809100018150E7
:1030F000809300011092F3018091F3018A3079F4FA
:1031000080911501813420F480911601813238F0CC
:10311000809100018150809300011092F301809111
:10312000F3018B3079F480911501813420F4809182
:103130001601803238F480910001815080930001A3
:103140001092F3018091F3018C3079F48091150194
:10315000853320F080911601813238F08091000192
:103160008150809300011092F3018091F301882334
:10317000B1F020E030E040E852E46091EF0170915E
:10318000F0018091F1019091F2010E948D1E1816BC
:1031900034F41092F30189818F5F8093F4013092AF
:1031A0000A0620920906309208062092070610921D
:1031B0000C0610920B0667E971E08CEF95E00E9417
:1031C000FF0E6091000170E080E090E04AE00E9414
:1031D000CA0686E490E090930A06809309069093CD
:1031E00008068093070610920C0610920B066EE9F3
:1031F00071E08CEF95E00E94FF0E6091F40170E0A9
:1032000080E090E04AE00E94CA06809100018111AE
:1032100009C080E48093150180E38093160181E06A
:103220008093190180911B0683FDBEC080911A0610
:1032300083FFBAC0DEC0813009F06BC043E250E0CA
:10324000509328064093270665EA71E081E196E0F5
:103250000E94FF0E6DE270E070930A06609309060B
:1032600070930806609307068DE090E090930C063B
:1032700080930B066FEA71E08CEF95E00E94FF0EE1
:103280006091F40170E080E090E04AE00E94CA069C
:103290002091180630911906C90168E671E00E9474
:1032A000B21F8C01C90164EB70E00E94B21F6DE097
:1032B00070E00E94B21F462F6091160170E080916D
:1032C00015012CE430E090E00E940D078091180673
:1032D000909119066CE370E00E94B21F4E9780F443
:1032E000109228061092270687E190E090932A0614
:1032F0008093290667EB71E081E196E00E94FF0E62
:1033000080911B0683FD50C080911A0683FF4CC03C
:1033100076C0823009F048C03092280620922706F5
:103320006DEC71E081E196E00E94FF0E809118063D
:103330009091190668E671E00E94B21F8C016091BD
:10334000160170E06F507109809115012CE430E096
:103350004DE090E00E940D07A3E2B0E0B0930A06B2
:10336000A0930906B0930806A0930706E2E3F0E0F5
:10337000F0930C06E0930B068091180690911906C5
:1033800068E770E00E94B21FCC9730F46CED71E0FA
:103390008CEF95E00E94FF0E80911B0683FD04C018
:1033A00080911A0683FD89C00E94960480E090E017
:1033B000892B09F4DDC90E940000DAC92115310505
:1033C00081F0FB01E40FF51FE850FF4FE491F0E0BE
:1033D000082C02C0F595E7950A94E2F7DC90ED29F8
:1033E000EC936F5F7F4F11966835710509F04BC9FB
:1033F0003DC98091F5018F5F8093F501D5CF109283
:1034000019011092EF011092F0011092F101109247
:10341000F2011092F3011092F7011092F6018CE480
:1034200090E0909318018093170180E48093150138
:1034300080E38093160140E050E060E87FE3409332
:1034400001015093020160930301709304016DEC3C
:103450007CEC8CE591E46093050170930601809308
:103460000701909308018DEC9CECA4EDB1E48093EE
:10347000090190930A01A0930B01B0930C014AE952
:1034800059E96DE172E440930D0150930E01609390
:103490000F01709310016DEC7CEC80E592E4609379
:1034A000110170931201809313019093140183E032
:1034B000809300011092F40177CF1092190174CF1C
:1034C000EBE3F6E01382128288EE93E0A0E0B0E036
:1034D00084839583A683B78382E691E0918380837A
:1034E0008FEF9FEF95878487E1E1F6E013821282E8
:1034F0001186128620E1238790878783108A118A9C
:10350000128A138A148A80E891E0918380838EE87E
:1035100091E095838483178A168A118E108E81E03C
:10352000828F138E848F158EECEFF5E0138212825A
:1035300024E731E0318320832CEF31E0368325838B
:1035400020E830E03087278320E430E0328721878D
:1035500095E0948B838B16861586108A17861486C1
:10356000138681E090E0928B818B14820895CF9234
:10357000DF92EF92FF920F931F93CF93DF931F92EF
:10358000CDB7DEB7182F062FE42E862F880F8E5F5B
:1035900099830E94310A83E00E94310AF12EC12EE4
:1035A0009981D92E8C2D8F19801798F4F601E7FE9A
:1035B00002C0849101C080810E94310A182F80E0EE
:1035C0000E94310A8123FFEFCF1ADF0A8111EACF6F
:1035D00001C081E00F90DF91CF911F910F91FF907B
:1035E000EF90DF90CF9008950F931F93CF93DF93C9
:1035F0008C0181E090E00E94941B80FF31C08AE042
:1036000090E00E94941B9FEF980F9E3F48F522E3A5
:1036100030E0D80157963C932E93569728E330E03C
:1036200059963C932E935897CBE0D0E0D801ED917A
:10363000FC910190F081E02D682FC8010995CE0121
:103640000E94941B2196C131D10581F70E949604F6
:1036500088EE93E0DF91CF911F910F910C94BF0FF3
:10366000DF91CF911F910F91089504970C94F41A54
:103670008F929F92AF92BF92CF92DF92EF92FF9282
:10368000CF93DF93EC01688179818A819B816115F9
:1036900071058105910521F464E279ED8BE597E0F0
:1036A0002DE133EF41E050E00E94AA1B49015A018D
:1036B0009B01AC01A7EAB1E40E94C91B6B017C012C
:1036C000ACEEB4EFA50194010E94D71BDC01CB0145
:1036D0008C0D9D1DAE1DBF1DB7FF03C00197A10935
:1036E000B04888839983AA83BB83BC01CD019F77AF
:1036F000DF91CF91FF90EF90DF90CF90BF90AF9090
:103700009F908F9008950E94381B08958AE591E05C
:103710000E94381B089560935A0170935B01809357
:103720005C0190935D010895F999FECF92BD81BD32
:10373000F89A992780B50895262FF999FECF1FBAD8
:1037400092BD81BD20BD0FB6F894FA9AF99A0FBECA
:1037500001960895052E97FB1EF400940E94C11B4C
:1037600057FD07D00E94DC1B07FC03D04EF40C94DD
:10377000C11B50954095309521953F4F4F4F5F4F5E
:10378000089590958095709561957F4F8F4F9F4FCD
:1037900008950E94FE1BA59F900DB49F900DA49FBD
:1037A000800D911D11240895B7FF0C94C91B0E9430
:1037B000C91B821B930B0895A1E21A2EAA1BBB1BE7
:1037C000FD010DC0AA1FBB1FEE1FFF1FA217B307ED
:1037D000E407F50720F0A21BB30BE40BF50B661F03
:1037E000771F881F991F1A9469F7609570958095C7
:1037F00090959B01AC01BD01CF010895A29FB0013E
:10380000B39FC001A39F700D811D1124911DB29F14
:10381000700D811D1124911D08955058BB27AA27B2
:103820000E94251C0C943F1E0E94061E38F00E9428
:103830000D1E20F039F49F3F19F426F40C94DC1D82
:103840000EF4E095E7FB0C94D61DE92F0E94641E50
:1038500058F3BA17620773078407950720F079F4C5
:10386000A6F50C94861E0EF4E0950B2EBA2FA02D13
:103870000B01B90190010C01CA01A0011124FF271D
:10388000591B99F0593F50F4503E68F11A16F04018
:10389000A22F232F342F4427585FF3CF4695379517
:1038A0002795A795F0405395C9F77EF41F16BA0BDC
:1038B000620B730B840BBAF09150A1F0FF0FBB1F8A
:1038C000661F771F881FC2F70EC0BA0F621F731FD3
:1038D000841F48F4879577956795B795F7959E3F30
:1038E00008F0B0CF9395880F08F09927EE0F9795C1
:1038F000879508950E94061E60F080E891E009F423
:103900009EEF0E940D1E28F040E851E071F45EEF3A
:103910000CC00C94DC1D0C94861EE92FE0780E94EC
:10392000641E40F3092E052AB1F32617370748070E
:10393000590738F00E2E07F8E02569F0E025E0641D
:103940000AC0EF6307F8009407FADB01B9019D0193
:10395000DC01CA01AD01EF930E94081D0E943F1EC9
:103960000E94BD1C5F91552339F02BED3FE049E4E7
:1039700050FD49EC0C940E1C0895DF93DD27B92F00
:10398000BF7740E85FE31616170648075B0718F491
:10399000D92F0E94921E9F938F937F936F930E94C3
:1039A000551FECEAF0E00E94DF1D0E943F1E2F91A0
:1039B0003F914F915F910E94AD1EDD2351F09058D1
:1039C000A2EA2AED3FE049EC5FE3D0785D270E9450
:1039D000251CDF910C943F1E0E94161EE3950C944B
:1039E000501E0E94051D0C943F1E0E940D1E58F093
:1039F0000E94061E40F029F45F3F29F00C94D61D6A
:103A000051110C94871E0C94DC1D0E94641E68F3F7
:103A10009923B1F3552391F3951B550BBB27AA2787
:103A200062177307840738F09F5F5F4F220F331FC1
:103A3000441FAA1FA9F335D00E2E3AF0E0E832D089
:103A400091505040E695001CCAF72BD0FE2F29D08C
:103A5000660F771F881FBB1F261737074807AB075E
:103A6000B0E809F0BB0B802DBF01FF2793585F4FD3
:103A70003AF09E3F510578F00C94D61D0C94871EA9
:103A80005F3FE4F3983ED4F3869577956795B795B5
:103A9000F7959F5FC9F7880F911D9695879597F9C0
:103AA0000895E1E0660F771F881FBB1F6217730739
:103AB0008407BA0720F0621B730B840BBA0BEE1F4E
:103AC00088F7E09508950E946A1D6894B1110C94DE
:103AD000871E08950E946C1E88F09F5798F0B92F9A
:103AE0009927B751B0F0E1F0660F771F881F991F33
:103AF0001AF0BA95C9F714C0B13091F00E94861E31
:103B0000B1E008950C94861E672F782F8827B85F40
:103B100039F0B93FCCF3869577956795B395D9F78A
:103B20003EF490958095709561957F4F8F4F9F4F94
:103B30000895E89409C097FB3EF4909580957095A0
:103B400061957F4F8F4F9F4F9923A9F0F92F96E9E9
:103B5000BB279395F695879577956795B795F1115E
:103B6000F8CFFAF4BB0F11F460FF1BC06F5F7F4FFB
:103B70008F4F9F4F16C0882311F096E911C077230D
:103B800021F09EE8872F762F05C0662371F096E816
:103B9000862F70E060E02AF09A95660F771F881FE5
:103BA000DAF7880F9695879597F9089597F99F67A3
:103BB00080E870E060E008959FEF80EC0895DF9367
:103BC000CF931F930F93FF92EF92DF927B018C01B3
:103BD000689406C0DA2EEF010E94AD1EFE01E89443
:103BE000A5912591359145915591A6F3EF010E943C
:103BF000251CFE019701A801DA9469F7DF90EF9088
:103C0000FF900F911F91CF91DF91089500240A94A6
:103C10001616170618060906089500240A941216A7
:103C200013061406050608950C94DC1D0E946C1EF4
:103C3000D8F3E894E0E0BB279F57F0F02AED3FE08F
:103C400049EC06C0EE0FBB0F661F771F881F28F0D8
:103C5000B23A62077307840728F0B25A620B730BFB
:103C6000840BE3959A9572F7803830F49A95BB0FE0
:103C7000661F771F881FD2F790480C947F1F092E6C
:103C80000394000C11F4882352F0BB0F40F4BF2BB7
:103C900011F460FF04C06F5F7F4F8F4F9F4F0895F7
:103CA000EF93E0FF07C0A2EA2AED3FE049EC5FEBAB
:103CB0000E94251C0E943F1E0F90039401FC905807
:103CC000E9EDF0E00C94921F57FD9058440F551FFA
:103CD00059F05F3F71F04795880F97FB991F61F08E
:103CE0009F3F79F087950895121613061406551F05
:103CF000F2CF4695F1DF08C0161617061806991F71
:103D0000F1CF86957105610508940895E894BB2765
:103D100066277727CB0197F908950E94591F08F469
:103D20008FEF08959B01AC0160E070E080E89FE3B5
:103D30000C94F11C0E94AD1E0C943F1E0E94061EA6
:103D400038F00E940D1E20F0952311F00C94D61D22
:103D50000C94DC1D11240C94871E0E94641E70F3C9
:103D6000959FC1F3950F50E0551F629FF001729F20
:103D7000BB27F00DB11D639FAA27F00DB11DAA1F2F
:103D8000649F6627B00DA11D661F829F2227B00D7C
:103D9000A11D621F739FB00DA11D621F839FA00D07
:103DA000611D221F749F3327A00D611D231F849F57
:103DB000600D211D822F762F6A2F11249F575040AE
:103DC0009AF0F1F088234AF0EE0FFF1FBB1F661F29
:103DD000771F881F91505040A9F79E3F510580F0F2
:103DE0000C94D61D0C94871E5F3FE4F3983ED4F3E9
:103DF000869577956795B795F795E7959F5FC1F796
:103E0000FE2B880F911D9695879597F908959F939E
:103E10000E94161E0F9007FCEE5F0C94501E19F4C2
:103E200016F40C94DC1D0C947D1F0E946C1EB8F3DC
:103E30009923C9F3B6F39F57550B87FF0E948B1F39
:103E40000024A0E640EA900180585695979528F402
:103E5000805C660F771F881F20F0261737074807FA
:103E600030F4621B730B840B202931294A2BA69551
:103E700017940794202531254A2758F7660F771F96
:103E8000881F20F026173707480730F4620B730BA2
:103E9000840B200D311D411DA09581F7B901842FA0
:103EA0009158880F9695879508959B01AC010C94C5
:103EB0009A1E990F0008550FAA0BE0E8FEEF1616A0
:103EC0001706E807F907C0F012161306E407F5070E
:103ED00098F0621B730B840B950B39F40A2661F082
:103EE000232B242B252B21F408950A2609F4A14025
:103EF000A6958FEF811D811D08959F3F31F0915050
:103F000020F4879577956795B795880F911D9695BD
:103F1000879597F9089591505040660F771F881F35
:103F2000D2F708959F938F937F936F93FF93EF93AF
:103F30009B01AC010E949A1EEF91FF910E94DF1D30
:103F40002F913F914F915F910C949A1E991B79E0AC
:103F500004C0991F961708F0961B881F7A95C9F719
:103F600080950895AA1BBB1B51E107C0AA1FBB1F68
:103F7000A617B70710F0A61BB70B881F991F5A95F5
:103F8000A9F780959095BC01CD01089597FB072E68
:103F900016F4009407D077FD09D00E94B21F07FCE9
:103FA00005D03EF4909581959F4F08957095619549
:103FB0007F4F0895EE0FFF1F0590F491E02D0994B7
:0E3FC00081E090E0F8940C94E51FF894FFCF98
:103FCE00030000803FCDCC5C41CDCCD4419A991DED
:103FDE0042CDCC504240304C000200E100000000C7
:103FEE000000F5FFFAFFF8FF0000040007000500CF
:103FFE00070004000000F8FFFAFFF5FF00000200C2
:10400E0004000600080004000000FCFFF8FFFAFFA1
:10401E00FCFFFEFF0000FFFFFFFF0100000000009D
:10402E000000F6095D09930A0C0A170A970AB50AE9
:10403E0000000000520EAD0DFA0EF90E0000000049
:10404E001010AD0DFA0EF90EF41AFCFF0000351B20
:10405E0000C180810000004C495645533A0053433D
:10406E004F52453A0047616D65204F766572005399
:10407E00434F52453A20002D505245535320412074
:10408E00544F20434F4E54494E55452D004F6273A9
:10409E007461636C65466C69676874002D412054C9
:0A40AE004F2053544152542D0000DE
:00000001FF
